1430HEADER                      DBOOX          05222017052220170317201103172011WESTBON, INC.                           320 W OHIO STREET,#300,CHICAGO,IL,606540000                                                     8008406604HUTCHINS SYSTEMS, INC.                  9.12                                                                                                                                                                                                                                                                                                                                                                                                                                                                                                                                                                                                                                                                                                                                                                                                                                                                                                                                                                                                                                                                                                                                                                                                         
14301052220171239520WESTBON2636370        22705                         I0003262017000000000000017800045M00000047200000000011 0BBBBBBBBBBBBBBBBBBBBBBB    00001747200000000000000000005222017000000000000000004262017F                1ZHAO                     ZIXI                                     0000000000424199720633070661  US688 110TH AVENUE NORTHEAST      APT S1204                       BELLEVUE            WA98004     RJ1                                                                                                  J2                                                                                                                                                                                                      J2                                                                                                                                                                                                      J2                                                                                                                                                                                                      K2                                K3                                      K4                            L1                                                    N1                                                                                                                                                
14301052220171239520WESTBON2636370        27735                         I0003102017000000000000039260041M00000112500000000011 0BBBBBBBBBBBBBBBBBBBBBBB    00003762700000000000000000005222017000000000000000005102017F                 LI                       CAN                                      0000000000125199758575514321  US465 WASHINGTON BOULEVARD        APT 3708S                       JERSEY CITY         NJ07310     RJ1                                                                                                  J2                                                                                                                                                                                                      J2                                                                                                                                                                                                      J2                                                                                                                                                                                                      K2                                K3                                      K4                            L1                                                    N1                                                                                                                                                
14301052220171239520WESTBON2636370        92363                         I0001182017000000000000025771025M00000114000000000011 000BBBBBBBBBBBBBBBBBBBBB    00002293200000000000000000005222017000000000000000004182017F                 NYOTO                    FIONNA                                   0000000000328199495180712241  US931 WILMONT WAY                                                 BEAUMONT            CA92223     RJ1                                                                                                  J2                                                                                                                                                                                                      J2                                                                                                                                                                                                      J2                                                                                                                                                                                                      K2                                K3                                      K4                            L1                                                    N1                                                                                                                                                
14301052220171239520WESTBON2636370        146450                        I0003312017000000000000019824024M00000091000000000011 0BBBBBBBBBBBBBBBBBBBBBBB    00001906900000000000000000005222017000000000000000004302017F                1LI                       YUZHENG                                  0000000000308199851750533111  US908 AKERS ROAD                  APT E516                        EAST LANSING        MI48825     RJ1                                                                                                  J2                                                                                                                                                                                                      J2                                                                                                                                                                                                      J2                                                                                                                                                                                                      K2                                K3                                      K4                            L1                                                    N1                                                                                                                                                
14301052220171239520WESTBON2636370        245476                        I0002022017000000000000016450045M00000043600000000011 00BBBBBBBBBBBBBBBBBBBBBB    00001551600000000000000000005222017000000000000000005022017F                 ZHANG                    HECHENG                                  0000000000701199254174011361  US980 NORTHWEST ANJNI CIRCLE                                      CORVALLIS           OR97330     RJ1                                                                                                  J2                                                                                                                                                                                                      J2                                                                                                                                                                                                      J2                                                                                                                                                                                                      K2                                K3                                      K4                            L1                                                    N1                                                                                                                                                
14301052220171239520WESTBON2636370        249305                        I0103022017000000000000002000012M00000018100000000011 0BBBBBBBBBBBBBBBBBBBBBBB    00000168800000000000000000005222017000000000000000005022017F                 MOHAMMED ALI             MUSTHAK                                  0000000000713199551697868291  US19 BROADFIELD PLACE                                             GLENCOVE            NY11542     RJ1                                                                                                  J2                                                                                                                                                                                                      J2                                                                                                                                                                                                      J2                                                                                                                                                                                                      K2                                K3                                      K4                            L1                                                    N1                                                                                                                                                
14301052220171239520WESTBON2636370        288794                        I0004062017000000000000024000036M00000076900000000011 BBBBBBBBBBBBBBBBBBBBBBBB    00002341900000000000000000005222017000000000000000005062017F                1MA                       JI                                       1031947680522199876577584541  US1250 1ST STREET                                                 WEST LAFAYETTE      IN47906     RJ1                                                                                                  J2                                                                                                                                                                                                      J2                                                                                                                                                                                                      J2                                                                                                                                                                                                      K2                                K3                                      K4                            L1                                                    N1                                                                                                                                                
14301052220171239520WESTBON2636370        409656                        I0003142017000000000000009800036M00000031400000000011 0BBBBBBBBBBBBBBBBBBBBBBB    00000956500000000000000000005222017000000000000000004142017F                 LI                       ZIJIAN                                   0000000000113199676071725501  US5306 WILLOW WALK ROAD                                           OCEANSIDE           CA92058     RJ1                                                                                                  J2                                                                                                                                                                                                      J2                                                                                                                                                                                                      J2                                                                                                                                                                                                      K2                                K3                                      K4                            L1                                                    N1                                                                                                                                                
14301052220171239520WESTBON2636370        420902                        I0004012017000000000000013999012M00000122700000000011 BBBBBBBBBBBBBBBBBBBBBBBB    00001297700000000000000000005222017000000000000000005012017F                1LIU                      XINRAN                                   0000000000820199840753807281  US3845 SUTTON PLACE BOULEVARD     APT 810                         WINTER PARK         FL32792     RJ1                                                                                                  J2                                                                                                                                                                                                      J2                                                                                                                                                                                                      J2                                                                                                                                                                                                      K2                                K3                                      K4                            L1                                                    N1                                                                                                                                                
14301052220171239520WESTBON2636370        434175                        I0002052017000000000000040000036M00000128100000000011 00BBBBBBBBBBBBBBBBBBBBBB    00003705900000000000000000005222017000000000000000005052017F                 ZENG                     JINGLIN                                  0000000000130199591791245381  US91 OXFORD BOULEVARD                                             GREAT NECK          NY11023     RJ1                                                                                                  J2                                                                                                                                                                                                      J2                                                                                                                                                                                                      J2                                                                                                                                                                                                      K2                                K3                                      K4                            L1                                                    N1                                                                                                                                                
14301052220171239520WESTBON2636370        0457260                       I0003242017000000000000005000024M00000023000000000011 0BBBBBBBBBBBBBBBBBBBBBBB    00000481000000000000000000005222017000000000000000004242017F                1MAO                      HONGLI                                   0000000000414199862627804631  US1580 COLLEGE VIEW DRIVE         APT 2                           MONTEREY PARK       CA91754     RJ1                                                                                                  J2                                                                                                                                                                                                      J2                                                                                                                                                                                                      J2                                                                                                                                                                                                      K2                                K3                                      K4                            L1                                                    N1                                                                                                                                                
14301052220171239520WESTBON2636370        0462098                       I0003222017000000000000005000012M00000043800000000011 DBBBBBBBBBBBBBBBBBBBBBBB    00000360100000000000000000005222017000000000000000004222017F                1CHU                      TSZ LUN                                  7502819510402198894044218511  US2507 STELLA STREET              APT A                           DENTON              TX76201     RJ1                                                                                                  J2                                                                                                                                                                                                      J2                                                                                                                                                                                                      J2                                                                                                                                                                                                      K2                                K3                                      K4                            L1                                                    N1                                                                                                                                                
14301052220171239520WESTBON2636370        569520                        I0006192016000000000000011400030M00000042800000000011 0000000000BBBBBBBBBBBBBB    00000789500000000000000000005222017000000000000000004192017F                 LI                       DAN                                      0000000000807199564630154081  US8727 HUEBNER ROAD               APT 806                         SAN ANTONIO         TX78240     RJ1                                                                                                  J2                                                                                                                                                                                                      J2                                                                                                                                                                                                      J2                                                                                                                                                                                                      K2                                K3                                      K4                            L1                                                    N1                                                                                                                                                
14301052220171239520WESTBON2636370        620782                        I0002202017000000000000012000027M00000049500000000011 00BBBBBBBBBBBBBBBBBBBBBB    00001119000000000000000000005222017000000000000000004202017F                 ZENG                     RONGJIE                                  0000000000418199721627299501  US11900 CARLTON ROAD              APT 530F                        CLEVELAND           OH44106     RJ1                                                                                                  J2                                                                                                                                                                                                      J2                                                                                                                                                                                                      J2                                                                                                                                                                                                      K2                                K3                                      K4                            L1                                                    N1                                                                                                                                                
14301052220171239520WESTBON2636370        631194                        I0004022017000000000000026622036M00000085300000000011 BBBBBBBBBBBBBBBBBBBBBBBB    00002597700000000000000000005222017000000000000000005022017F                1ZHOU                     QIJUN                                    0000000001105199780588607471  US555 CORONEL PLACE               APT 1                           SANTA BARBARA       CA93101     RJ1                                                                                                  J2                                                                                                                                                                                                      J2                                                                                                                                                                                                      J2                                                                                                                                                                                                      K2                                K3                                      K4                            L1                                                    N1                                                                                                                                                
14301052220171239520WESTBON2636370        0677378                       I0001182017000000000000018000036M00000057700000000011 000BBBBBBBBBBBBBBBBBBBBB    00001228600000000000000000005222017000000000000000001302017F                 FANG                     ZHENGFENG                                0000000000414199834761028811  US1927 QUEENSWOOD DRIVE           APT K306                        YORK                PA17403     RJ1                                                                                                  J2                                                                                                                                                                                                      J2                                                                                                                                                                                                      J2                                                                                                                                                                                                      K2                                K3                                      K4                            L1                                                    N1                                                                                                                                                
14301052220171239520WESTBON2636370        824103                        I0004172016000000000000016000035M00000052500000000011 000000000000BBBBBBBBBBBB    00001100500000000000000000005222017000000000000000004172017F                 LIANG                    WEI                                      0274154140721199478572739481  US1632 ENGEL ROAD                 HASHINGER 701                   LAWRENCE            KS66045     RJ1                                                                                                  J2                                                                                                                                                                                                      J2                                                                                                                                                                                                      J2                                                                                                                                                                                                      K2                                K3                                      K4                            L1                                                    N1                                                                                                                                                
14301052220171239520WESTBON2636370        831413                        I0003292017000000000000006735036M00000022100000000011 0BBBBBBBBBBBBBBBBBBBBBBB    00000673500000000000000000005222017000000000000000004292017F                1CHEN                     LUFEI                                    6585239390316199731651814261  US1820 WARREN AVENUE              APT 353                         WINFIELD            KS67156     RJ1                                                                                                  J2                                                                                                                                                                                                      J2                                                                                                                                                                                                      J2                                                                                                                                                                                                      K2                                K3                                      K4                            L1                                                    N1                                                                                                                                                
14301052220171239520WESTBON2636370        849070                        I0003062017000000000000040000045M00000106000000000011 0BBBBBBBBBBBBBBBBBBBBBBB    00003850900000000000000000005222017000000000000000005062017F                 LI                       KEXIAN                                   0000000000127199583288000001  US16899 JAMBOREE ROAD             APT 214                         IRVINE              CA92606     RJ1                                                                                                  J2                                                                                                                                                                                                      J2                                                                                                                                                                                                      J2                                                                                                                                                                                                      K2                                K3                                      K4                            L1                                                    N1                                                                                                                                                
14301052220171239520WESTBON2636370        998318                        I0010292016000000000000019000024M00000087200000000011 00000BBBBBBBBBBBBBBBBBBB    00000626000000000000000000005222017000000000000000004142017F                 JIANG                    ZHUOBO                                   0000000001211199492872393261  US111 WEST 6 STREET               APT 1103                        TEMPLE              AZ85281     RJ1                                                                                                  J2                                                                                                                                                                                                      J2                                                                                                                                                                                                      J2                                                                                                                                                                                                      K2                                K3                                      K4                            L1                                                    N1                                                                                                                                                
14301052220171239520WESTBON2636370        1014545                       I0009282016000000000000037100012M00000000000000000013000000DBBBBBBBBBBBBBBBBBB    00000000000000000000000000011202016000000001120201611202016F                 HE                       SHANSHAN                                 0000000000130199791777516441  US179TH STREET                    APT 69-53                       FRESH MEADOW        NY11365      J1                                                                                                  J2                                                                                                                                                                                                      J2                                                                                                                                                                                                      J2                                                                                                                                                                                                      K2                                K3                                      K4                            L1                                                    N1                                                                                                                                                
14301052220171239520WESTBON2636370        1024837                       I0012182016000000000000023000036M00000073700000000011 0000BBBBBBBBBBBBBBBBBBBB    00002075100000000000000000005222017000000000000000004182017F                 LI                       LIANGTAO                                 0000000000831199240866682101  US2463 OCALA AVENUE                                               SAN JOSE            CA95122     RJ1                                                                                                  J2                                                                                                                                                                                                      J2                                                                                                                                                                                                      J2                                                                                                                                                                                                      K2                                K3                                      K4                            L1                                                    N1                                                                                                                                                
14301052220171239520WESTBON2636370        1031735                       I0012262016000000000000022000020M00000119400000000011 0000BBBBBBBBBBBBBBBBBBBB    00001787000000000000000000005222017000000000000000004262017F                 QI                       ZHENGXU                                  0000000000304199380497267561  US725 WEST CARY STREET RICHMOND   APT 302                         HENRICO             VA23220     RJ1                                                                                                  J2                                                                                                                                                                                                      J2                                                                                                                                                                                                      J2                                                                                                                                                                                                      K2                                K3                                      K4                            L1                                                    N1                                                                                                                                                
14301052220171239520WESTBON2636370        1259706                       I0101182017000000000000002000012M00000018500000000011 00BBBBBBBBBBBBBBBBBBBBBB    00000140100000000000000000005222017000000000000000001192017F                 ZHANG                    JIANGUO                                  8989868820515199477367329941  US3235 SOUTH HALSTED STREET                                       CHICAGO             IL60608     RJ1                                                                                                  J2                                                                                                                                                                                                      J2                                                                                                                                                                                                      J2                                                                                                                                                                                                      K2                                K3                                      K4                            L1                                                    N1                                                                                                                                                
14301052220171239520WESTBON2636370        1310914                       I0008172016000000000000037990030M00000142800000000011 00000000BBBBBBBBBBBBBBBB    00002872000000000000000000005222017000000000000000004172017F                 LIU                      JIADONG                                  0000000001220199634729179011  US1927 QUEENSWOOD DRIVE           APT H106                        YORK                PA17403     RJ1                                                                                                  J2                                                                                                                                                                                                      J2                                                                                                                                                                                                      J2                                                                                                                                                                                                      K2                                K3                                      K4                            L1                                                    N1                                                                                                                                                
14301052220171239520WESTBON2636370        1344683                       I0002082017000000000000015000027M00000061900000000011 00BBBBBBBBBBBBBBBBBBBBBB    00001347800000000000000000005222017000000000000000005082017F                 ZHAO                     WEIMIN                                   0000000000206199561782035021  US21 OVERLOOK RIDGE TERRACE       APT 332                         REVERE              MA02151     RJ1                                                                                                  J2                                                                                                                                                                                                      J2                                                                                                                                                                                                      J2                                                                                                                                                                                                      K2                                K3                                      K4                            L1                                                    N1                                                                                                                                                
14301052220171239520WESTBON2636370        1378422                       I0011162016000000000000014989036M00000048000000000011 00000BBBBBBBBBBBBBBBBBBB    00001314900000000000000000005222017000000000000000004162017F                 LU                       PIYAN                                    0000000001215199771731938891  US1603 PINEFORD DRIVE                                             MIDDLETOWN          PA17057     RJ1                                                                                                  J2                                                                                                                                                                                                      J2                                                                                                                                                                                                      J2                                                                                                                                                                                                      K2                                K3                                      K4                            L1                                                    N1                                                                                                                                                
14301052220171239520WESTBON2636370        1494613                       I0011092016000000000000012497026M00000053400000000011 00000BBBBBBBBBBBBBBBBBBB    00000983200000000000000000005222017000000000000000005092017F                 YANG                     BIAO                                     0000000001129199371442327481  US24255 PACIFIC COAST HIGHWAY     APT 3407                        MALIBU              CA90263     RJ1                                                                                                  J2                                                                                                                                                                                                      J2                                                                                                                                                                                                      J2                                                                                                                                                                                                      K2                                K3                                      K4                            L1                                                    N1                                                                                                                                                
14301052220171239520WESTBON2636370        1505210                       I0003152017000000000000016089036M00000051500000000011 0BBBBBBBBBBBBBBBBBBBBBBB    00001570300000000000000000005222017000000000000000004152017F                 HUANG                    GANG                                     0000000000310199791794581351  US5086 STATION ROAD               APT 423                         ERIE                PA16510     RJ1                                                                                                  J2                                                                                                                                                                                                      J2                                                                                                                                                                                                      J2                                                                                                                                                                                                      K2                                K3                                      K4                            L1                                                    N1                                                                                                                                                
14301052220171239520WESTBON2636370        1543648                       I0001272017000000000000015450029M00000059800000000011 000BBBBBBBBBBBBBBBBBBBBB    00001400600000000000000000005222017000000000000000004272017F                 JIN                      YUKUN                                    0000000000807199651770367751  US1845 EAST SHORE DRIVE           APT D2                          EAST LANSING        MI48823     RJ1                                                                                                  J2                                                                                                                                                                                                      J2                                                                                                                                                                                                      J2                                                                                                                                                                                                      K2                                K3                                      K4                            L1                                                    N1                                                                                                                                                
14301052220171239520WESTBON2636370        1614547                       I0003092017000000000000015000036M00000048000000000011 0BBBBBBBBBBBBBBBBBBBBBBB    00001427400000000000000000005222017000000000000000005092017F                 OU                       ZIQUAN                                   0000000000000000031074546251  US8399 ABITA CIRCLE                                               LAS VEGAS           NV89147      J1                                                                                                  J2                                                                                                                                                                                                      J2                                                                                                                                                                                                      J2                                                                                                                                                                                                      K2                                K3                                      K4                            L1                                                    N1                                                                                                                                                
14301052220171239520WESTBON2636370        1638398                       I0101262017000000000000001000012M00000009100000000011 000BBBBBBBBBBBBBBBBBBBBB    00000076400000000000000000005222017000000000000000004262017F                 CYPRIANOS                ANDRESIOUS                               8074365031231199591722439271  US861 BEDFORD ROAD                                                PLEANSANTVILLE      NY10570     RJ1                                                                                                  J2                                                                                                                                                                                                      J2                                                                                                                                                                                                      J2                                                                                                                                                                                                      K2                                K3                                      K4                            L1                                                    N1                                                                                                                                                
14301052220171239520WESTBON2636370        1918097                       I0010282016000000000000014500012M00000127100000000011 000000BBBBBBBBBBBBBBBBBB    00000742200000000000000000005222017000000000000000004282016F                 ZHAO                     PENGFEI                                  0000000000527199671644581231  US100 HERRON DRIVE                APT 412                         AMHERST             NY14228     RJ1                                                                                                  J2                                                                                                                                                                                                      J2                                                                                                                                                                                                      J2                                                                                                                                                                                                      K2                                K3                                      K4                            L1                                                    N1                                                                                                                                                
14301052220171239520WESTBON2636370        2045727                       I0003042017000000000000040000040M00000117100000000011 0BBBBBBBBBBBBBBBBBBBBBBB    00003828700000000000000000005222017000000000000000005042017F                 JIANG                    HAORAN                                   0000000000709199894951864351  US43 TANGELO                                                      IRVINE              CA92618     RJ1                                                                                                  J2                                                                                                                                                                                                      J2                                                                                                                                                                                                      J2                                                                                                                                                                                                      K2                                K3                                      K4                            L1                                                    N1                                                                                                                                                
14301052220171239520WESTBON2636370        2130660                       I0003052017000000000000008900024M00000040900000000011 0BBBBBBBBBBBBBBBBBBBBBBB    00000822100000000000000000005222017000000000000000005052017F                 LIU                      QIANLIN                                  0000000000124199653097943591  US1660 DREW CIRCLE                APT 98                          DAVIS               CA95618     RJ1                                                                                                  J2                                                                                                                                                                                                      J2                                                                                                                                                                                                      J2                                                                                                                                                                                                      K2                                K3                                      K4                            L1                                                    N1                                                                                                                                                
14301052220171239520WESTBON2636370        2131333                       I0009262016000000000000021984036M00000070400000000011 0000000BBBBBBBBBBBBBBBBB    00001818200000000000000000005222017000000000000000004262017F                 YUAN                     CANKUN                                   8414955880708199676547699991  US1900 EAST 10TH STREET           ROOM 1257                       BLOOMINGTON         IN47906     RJ1                                                                                                  J2                                                                                                                                                                                                      J2                                                                                                                                                                                                      J2                                                                                                                                                                                                      K2                                K3                                      K4                            L1                                                    N1                                                                                                                                                
14301052220171239520WESTBON2636370        2257035                       I0002162017000000000000013296030M00000050000000000011 00BBBBBBBBBBBBBBBBBBBBBB    00001252700000000000000000005222017000000000000000004252017F                 ABUREZEZA                SULTAN MOHAMMEDALI B                     0000000000522199285780011131  US55 FIR HILL                     APT 10C9                        AKRON               OH44304     RJ1                                                                                                  J2                                                                                                                                                                                                      J2                                                                                                                                                                                                      J2                                                                                                                                                                                                      K2                                K3                                      K4                            L1                                                    N1                                                                                                                                                
14301052220171239520WESTBON2636370        2279642                       I0003232017000000000000040000036M00000128100000000011 0BBBBBBBBBBBBBBBBBBBBBBB    00003904100000000000000000005222017000000000000000004232017F                1YUE                      PINGSHUAI                                0000000000715199763168212131  US4400 VESTAL PARKWAY             APT 25815                       BINGHAMTON          NY13902     RJ1                                                                                                  J2                                                                                                                                                                                                      J2                                                                                                                                                                                                      J2                                                                                                                                                                                                      K2                                K3                                      K4                            L1                                                    N1                                                                                                                                                
14301052220171239520WESTBON2636370        2343857                       I0011262016000000000000011100015M00000078800000000011 00000BBBBBBBBBBBBBBBBBBB    00000754300000000000000000005222017000000000000000004262017F                 WIN                      HTOO AUNG                                7802821321110199865072038571  US513 EAST SANTA INEZ AVENUE                                      SAN MATEO           CA94401     RJ1                                                                                                  J2                                                                                                                                                                                                      J2                                                                                                                                                                                                      J2                                                                                                                                                                                                      K2                                K3                                      K4                            L1                                                    N1                                                                                                                                                
14301052220171239520WESTBON2636370        2371693                       I0003302017000000000000040000028M00000159800000000011 0BBBBBBBBBBBBBBBBBBBBBBB    00003872400000000000000000005222017000000000000000004302017F                1HE                       JINGMAN                                  0000000000811199771771446681  US1927 QUEENSWOOD DRIVE           APT H105                        YORK                PA17403     RJ1                                                                                                  J2                                                                                                                                                                                                      J2                                                                                                                                                                                                      J2                                                                                                                                                                                                      K2                                K3                                      K4                            L1                                                    N1                                                                                                                                                
14301052220171239520WESTBON2636370        2373412                       I0010202016000000000000028700024M00000131800000000011 000000BBBBBBBBBBBBBBBBBB    00002202300000000000000000005222017000000000000000004202017F                 CHEN                     YUAN                                     0000000001030199190877024381  US2506 LIGHTHOUSE LANE                                            SAYREVILLE          NJ08859     RJ1                                                                                                  J2                                                                                                                                                                                                      J2                                                                                                                                                                                                      J2                                                                                                                                                                                                      K2                                K3                                      K4                            L1                                                    N1                                                                                                                                                
14301052220171239520WESTBON2636370        2406888                       I0002242017000000000000029335024M00000134700000000011 00BBBBBBBBBBBBBBBBBBBBBB    00002708200000000000000000005222017000000000000000004242017F                 CHEN                     JUNHENG                                  0000000000926199648079895151  US1001EAST PLAYA DEL NORTE DRIVE  APT 2101                        TEMPE               AZ85281     RJ1                                                                                                  J2                                                                                                                                                                                                      J2                                                                                                                                                                                                      J2                                                                                                                                                                                                      K2                                K3                                      K4                            L1                                                    N1                                                                                                                                                
14301052220171239520WESTBON2636370        2454991                       I0002282017000000000000010000018M00000059800000000011 00BBBBBBBBBBBBBBBBBBBBBB    00000895300000000000000000005222017000000000000000004282017F                 LI                       YIMEI                                    0000000001210199564640695231  US3916 PRINCE STREET 5D                                           FLUSHING            NY11354     RJ1                                                                                                  J2                                                                                                                                                                                                      J2                                                                                                                                                                                                      J2                                                                                                                                                                                                      K2                                K3                                      K4                            L1                                                    N1                                                                                                                                                
14301052220171239520WESTBON2636370        2525182                       I0003092017000000000000033000036M00000105700000000011 0BBBBBBBBBBBBBBBBBBBBBBB    00002164300000000000000000005222017000000000000000004132017F                 LIN                      YANSONG                                  0000000001011199634741744991  US3614 165TH STREET               APT 4BN                         FLUSHING            NY11358     RJ1                                                                                                  J2                                                                                                                                                                                                      J2                                                                                                                                                                                                      J2                                                                                                                                                                                                      K2                                K3                                      K4                            L1                                                    N1                                                                                                                                                
14301052220171239520WESTBON2636370        2568433                       I0001292017000000000000040000037M00000125100000000011 00BBBBBBBBBBBBBBBBBBBBBB    00003809400000000000000000005222017000000000000000003282017F                 YAO                      HONGYU                                   2117176670331199777371289771  US1917 COPPER BEECH AVENUE        APT 206J                        AMES                IA50010     RJ1                                                                                                  J2                                                                                                                                                                                                      J2                                                                                                                                                                                                      J2                                                                                                                                                                                                      K2                                K3                                      K4                            L1                                                    N1                                                                                                                                                
14301052220171239520WESTBON2636370        2576008                       I0011132016000000000000018500031M00000067500000000011 00000BBBBBBBBBBBBBBBBBBB    00001525700000000000000000005222017000000000000000005132017F                 ZHANG                    JIAHUI                                   0000000000618199754186491911  US4524 EAST LAUREL DRIVE NORTHEAST                                SEATTLE             WA98105     RJ1                                                                                                  J2                                                                                                                                                                                                      J2                                                                                                                                                                                                      J2                                                                                                                                                                                                      K2                                K3                                      K4                            L1                                                    N1                                                                                                                                                
14301052220171239520WESTBON2636370        2587514                       I0001062017000000000000019500030M00000073300000000011 000BBBBBBBBBBBBBBBBBBBBB    00001715100000000000000000005222017000000000000000005062017F                 ZHANG                    QIAN                                     0983934440108199481576438691  US1110 VARSITY BOULEVARD          APT 212                         DEKALB              IL60115     RJ1                                                                                                  J2                                                                                                                                                                                                      J2                                                                                                                                                                                                      J2                                                                                                                                                                                                      K2                                K3                                      K4                            L1                                                    N1                                                                                                                                                
14301052220171239520WESTBON2636370        2641737                       I0002092017000000000000007800029M00000030200000000011 00BBBBBBBBBBBBBBBBBBBBBB    00000706900000000000000000005222017000000000000000005092017F                 WANG                     LIBIN                                    0000000001114199780525971001  US4065 FOOTHILL ROAD              APT D                           SANTA BARBARA       CA93110     RJ1                                                                                                  J2                                                                                                                                                                                                      J2                                                                                                                                                                                                      J2                                                                                                                                                                                                      K2                                K3                                      K4                            L1                                                    N1                                                                                                                                                
14301052220171239520WESTBON2636370        2679320                       I0003252017000000000000023000036M00000073700000000011 0BBBBBBBBBBBBBBBBBBBBBBB    00002244900000000000000000005222017000000000000000004252017F                1SABRI                    TOYYAB                                   0000000000605199671764907471  US277 WEST MAIN STREET            APT 903A                        MIDDLETOWN          PA17057     RJ1                                                                                                  J2                                                                                                                                                                                                      J2                                                                                                                                                                                                      J2                                                                                                                                                                                                      K2                                K3                                      K4                            L1                                                    N1                                                                                                                                                
14301052220171239520WESTBON2636370        2686114                       I0012142016000000000000008887012M00000077900000000011 0000BBBBBBBBBBBBBBBBBBBB    00000528400000000000000000005222017000000000000000005142017F                 TU                       YAZHOU                                   3439178431030199130245068351  US1300 SOUTH FARMVIEW DRIVE       APT D21                         DOVER               DE19904     RJ1                                                                                                  J2                                                                                                                                                                                                      J2                                                                                                                                                                                                      J2                                                                                                                                                                                                      K2                                K3                                      K4                            L1                                                    N1                                                                                                                                                
14301052220171239520WESTBON2636370        2687080                       I0004062017000000000000013498027M00000055700000000011 BBBBBBBBBBBBBBBBBBBBBBBB    00001304600000000000000000005222017000000000000000005062017F                1ZHANG                    HAN                                      7721378160518199321560315961  US633 WEST ROTTENHOUSE STREET     APT A0416                       PHILADELPHIA        PA19144     RJ1                                                                                                  J2                                                                                                                                                                                                      J2                                                                                                                                                                                                      J2                                                                                                                                                                                                      K2                                K3                                      K4                            L1                                                    N1                                                                                                                                                
14301052220171239520WESTBON2636370        2714298                       I0002192017000000000000025410036M00000081400000000011 00BBBBBBBBBBBBBBBBBBBBBB    00002416700000000000000000005222017000000000000000004192017F                 WU                       TIANHAO                                  0000000000912199662667382491  US130 VALLEY STREET               APT 3030                        PASADENA            CA91105     RJ1                                                                                                  J2                                                                                                                                                                                                      J2                                                                                                                                                                                                      J2                                                                                                                                                                                                      K2                                K3                                      K4                            L1                                                    N1                                                                                                                                                
14301052220171239520WESTBON2636370        2718594                       I0003232017000000000000029369018M00000175700000000011 0BBBBBBBBBBBBBBBBBBBBBBB    00002784900000000000000000005222017000000000000000004232017F                 YAN                      LIXING                                   0000000000922199778169025471  US660 WASHINGTON STREET           APT 16L                         BOSTON              MA02111     RJ1                                                                                                  J2                                                                                                                                                                                                      J2                                                                                                                                                                                                      J2                                                                                                                                                                                                      K2                                K3                                      K4                            L1                                                    N1                                                                                                                                                
14301052220171239520WESTBON2636370        2766244                       I0002062017000000000000012714029M00000049200000000011 00BBBBBBBBBBBBBBBBBBBBBB    00001152200000000000000000005222017000000000000000005062017F                 ZHA                      XUN                                      6615550680917199147026540471  US1104 PEACHTREE PARK             DRIVE NORTHEAST                 ATLANTA             GA30309     RJ1                                                                                                  J2                                                                                                                                                                                                      J2                                                                                                                                                                                                      J2                                                                                                                                                                                                      K2                                K3                                      K4                            L1                                                    N1                                                                                                                                                
14301052220171239520WESTBON2636370        2846500                       I0011262016000000000000009988030M00000037500000000011 00000BBBBBBBBBBBBBBBBBBB    00000848000000000000000000005222017000000000000000004262017F                 TAI                      TAK CHING                                0000000001205199491720796341  US1115 SMYRNA COURT                                               SUNNYVALE           CA94087     RJ1                                                                                                  J2                                                                                                                                                                                                      J2                                                                                                                                                                                                      J2                                                                                                                                                                                                      K2                                K3                                      K4                            L1                                                    N1                                                                                                                                                
14301052220171239520WESTBON2636370        2891786                       I0008202016000000000000012081030M00000045400000000011 00000000BBBBBBBBBBBBBBBB    00000913500000000000000000005222017000000000000000004202017F                 HU                       WENJIAN                                  1306795260523199153075099581  US1313 WAKE FOREST DRIVE          APT 221                         DAVIS               CA95616     RJ1                                                                                                  J2                                                                                                                                                                                                      J2                                                                                                                                                                                                      J2                                                                                                                                                                                                      K2                                K3                                      K4                            L1                                                    N1                                                                                                                                                
14301052220171239520WESTBON2636370        2914150                       I0003032017000000000000030000018M00000179500000000011 0BBBBBBBBBBBBBBBBBBBBBBB    00002687500000000000000000005222017000000000000000005032017F                 WANG                     KEER                                     8033621611109199460350196851  US14 CLUBHOUSE STREET                                             DURHAM              NH03824     RJ1                                                                                                  J2                                                                                                                                                                                                      J2                                                                                                                                                                                                      J2                                                                                                                                                                                                      K2                                K3                                      K4                            L1                                                    N1                                                                                                                                                
14301052220171239520WESTBON2636370        2924268                       I0012212016000000000000009296012M00000081500000000011 0000BBBBBBBBBBBBBBBBBBBB    00000629300000000000000000005222017000000000000000004212017F                 HU                       MENGHAN                                  0000000000822199197940299081  US950 COLGATE DRIVE               APT C312                        COLLEGE STATION     TX77840     RJ1                                                                                                  J2                                                                                                                                                                                                      J2                                                                                                                                                                                                      J2                                                                                                                                                                                                      K2                                K3                                      K4                            L1                                                    N1                                                                                                                                                
14301052220171239520WESTBON2636370        2941644                       I0101272017000000000000001099024M00000005500000000011 000BBBBBBBBBBBBBBBBBBBBB    00000098000000000000000000005222017000000000000000004232017F                 AL MAMARI                HAMED SULTAN                             0000000000816199755954756751  US5164 PRIMITIVO WAY              APT 256                         FRESNO              CA93710     RJ1                                                                                                  J2                                                                                                                                                                                                      J2                                                                                                                                                                                                      J2                                                                                                                                                                                                      K2                                K3                                      K4                            L1                                                    N1                                                                                                                                                
14301052220171239520WESTBON2636370        2972608                       I0011192016000000000000008000024M00000036700000000011 00000BBBBBBBBBBBBBBBBBBB    00000645400000000000000000005222017000000000000000004192017F                 DAI                      QINGWEI                                  0000000001118199571635288761  US313 HERRON DRIVE                                                BUFFALO             NY14228     RJ1                                                                                                  J2                                                                                                                                                                                                      J2                                                                                                                                                                                                      J2                                                                                                                                                                                                      K2                                K3                                      K4                            L1                                                    N1                                                                                                                                                
14301052220171239520WESTBON2636370        2990400                       I0012032016000000000000012000018M00000071800000000011 000BBBBBBBBBBBBBBBBBBBBB    00000949000000000000000000005222017000000000000000004062017F                 CHEN                     BANGLIN                                  0000000001220199534770300771  US36 NEEL PATH                    APT 36                          CENTEREACH          NY11720     RJ1                                                                                                  J2                                                                                                                                                                                                      J2                                                                                                                                                                                                      J2                                                                                                                                                                                                      K2                                K3                                      K4                            L1                                                    N1                                                                                                                                                
14301052220171239520WESTBON2636370        3047373                       I0011052016000000000000040000030M00000150300000000011 00000BBBBBBBBBBBBBBBBBBB    00003272400000000000000000005222017000000000000000005052017F                 HON                      ALLAN JAMES                              0000000001006198640742174771  US10899 SOUTHWEST 4TH STREET      APT 610                         MIAMI               FL33174     RJ1                                                                                                  J2                                                                                                                                                                                                      J2                                                                                                                                                                                                      J2                                                                                                                                                                                                      K2                                K3                                      K4                            L1                                                    N1                                                                                                                                                
14301052220171239520WESTBON2636370        3065155                       I0102022017000000000000002500028M00000011200000000011 00BBBBBBBBBBBBBBBBBBBBBB    00000228100000000000000000005222017000000000000000005022017F                 JUNG                     YOONJI                                   0000000000312199481260692621  US1280 NORTH COLLEGE AVENUE       APT 313                         BLOOMINGTON         IN47404     RJ1                                                                                                  J2                                                                                                                                                                                                      J2                                                                                                                                                                                                      J2                                                                                                                                                                                                      K2                                K3                                      K4                            L1                                                    N1                                                                                                                                                
14301052220171239520WESTBON2636370        3076057                       I0112082016000000000000001500024M00000007300000000011 0000BBBBBBBBBBBBBBBBBBBB    00000122500000000000000000005222017000000000000000005082017F                 WORLIKAR                 ANKITA                                   0158174520402199251672821721  US38 LENOX AVENUE                                                 HICKSVILLE          NY11801     RJ1                                                                                                  J2                                                                                                                                                                                                      J2                                                                                                                                                                                                      J2                                                                                                                                                                                                      K2                                K3                                      K4                            L1                                                    N1                                                                                                                                                
14301052220171239520WESTBON2636370        3122327                       I0003042017000000000000015225036M00000048800000000011 0BBBBBBBBBBBBBBBBBBBBBBB    00001448800000000000000000005222017000000000000000005042017F                 XU                       SHUHANG                                  0000000000919199642522905331  US2096 SOUTHEAST 8TH PLACE        APT 2111                        RENTON              WA98058     RJ1                                                                                                  J2                                                                                                                                                                                                      J2                                                                                                                                                                                                      J2                                                                                                                                                                                                      K2                                K3                                      K4                            L1                                                    N1                                                                                                                                                
14301052220171239520WESTBON2636370        3344343                       I0003042017000000000000040000045M00000106000000000011 0BBBBBBBBBBBBBBBBBBBBBBB    00003850900000000000000000005222017000000000000000005042017F                 CHOI                     GYEONGMIN                                0000000001224199165057634201  US236 36TH AVENUE                 APT D                           SANMATEO            CA94403     RJ1                                                                                                  J2                                                                                                                                                                                                      J2                                                                                                                                                                                                      J2                                                                                                                                                                                                      K2                                K3                                      K4                            L1                                                    N1                                                                                                                                                
14301052220171239520WESTBON2636370        3364081                       I0010272016000000000000008275045M00000021900000000011 000000BBBBBBBBBBBBBBBBBB    00000733300000000000000000005222017000000000000000004272017F                 SHIN                     HOJIN                                    0000000000721198921440456061  US2301 PERFORMANCE DRIVE          APT 420                         RICHARDSON          TX75082     RJ1                                                                                                  J2                                                                                                                                                                                                      J2                                                                                                                                                                                                      J2                                                                                                                                                                                                      K2                                K3                                      K4                            L1                                                    N1                                                                                                                                                
14301052220171239520WESTBON2636370        3483417                       I0003132017000000000000030000026M00000128100000000011 0BBBBBBBBBBBBBBBBBBBBBBB    00002896100000000000000000005222017000000000000000004132017F                 TAO                      YILIN                                    0000000000213199451681619971  US140 37 CHERRY AVENUE            APT 4C                          FLUSHING            NY11355     RJ1                                                                                                  J2                                                                                                                                                                                                      J2                                                                                                                                                                                                      J2                                                                                                                                                                                                      K2                                K3                                      K4                            L1                                                    N1                                                                                                                                                
